:020000040800F2
:100000001004002085110008611100086311000828
:100010006511000867110008691100080000000060
:100020000000000000000000000000006B1100084C
:100030006D110008000000006F1100087111000828
:10004000B9110008BD110008C1110008C511000850
:10005000C9110008CD110008D1110008D511000800
:10006000D9110008DD110008E1110008E5110008B0
:10007000E9110008ED110008F1110008F511000860
:10008000F9110008FD11000801120008051200080E
:10009000091200080D1200081112000815120008BC
:1000A000191200081D12000821120008251200086C
:1000B000291200082D12000831120008351200081C
:1000C000391200083D1200084112000845120008CC
:1000D000491200084D12000851120008551200087C
:1000E000591200085D12000861120008651200082C
:1000F000691200086D1200087112000875120008DC
:10010000791200087D12000881120008851200088B
:10011000891200088D12000891120008951200083B
:10012000991200089D120008A1120008A5120008EB
:10013000A9120008AD120008B1120008B51200089B
:10014000B9120008BD120008C1120008C51200084B
:10015000C9120008CD120008D1120008D5120008FB
:10016000D9120008DD120008E1120008E5120008AB
:10017000E9120008ED120008F1120008000000006A
:10018000F5120008F9120008FD120008011300081A
:1001900005130008091300080D13000811130008C7
:1001A00015130008191300081D1300082DE9F84362
:1001B000040015D02078A84DC00743D5A86800F0EA
:1001C0000C00042807D0A86800F00C00082809D10A
:1001D0006868400206D52868800333D5606888BB0C
:1001E000012036E16068B0F5803F06D0B0F5A02F61
:1001F000286806D140F480202860286840F48030C8
:1002000005E020F480302860286820F480202860F1
:10021000606858B100F028F907462868800311D4B7
:1002200000F022F9C01B6528F7D30FE100F01CF99C
:1002300007462868800305D500F016F9C01B65281D
:10024000F7D303E12078854E800718D5A86810F011
:100250000C0F07D0A86800F00C00082823D16868AC
:10026000400220D42868800702D5E0680128B7D171
:100270002868216920F0F80040EAC1002860207851
:1002800000073AD56169764851B30121016000F059
:10029000EBF80746686F80072FD400F0E5F8C01B25
:1002A0000328F7D3D2E0E06868B10120306000F0A5
:1002B000DBF8074628688007DAD400F0D5F8C01BC1
:1002C0000328F7D3C2E0306000F0CEF80746286874
:1002D0008007D4D500F0C8F8C01B0328F7D3B5E0D9
:1002E000016000F0C1F80746686F800705D500F08F
:1002F000BBF8C01B0328F7D3A8E02078400761D5DE
:10030000286CC0004FF000080CD4CDF800804FF0EE
:100310000108286C40F080502864286C00F0805060
:1003200000900098DFF83C91D9F80000C00512D485
:10033000D9F8000040F48070C9F8000000F094F88B
:100340000746D9F80000C00505D400F08DF8C01BA1
:100350000328F6D37AE0A068012805D00528286F85
:1003600006D140F004002867286F40F0010005E046
:10037000400840002867286F20F00400286741F2F9
:100380008939A06858B100F06FF80746286F8007D8
:1003900011D400F069F8C01B4845F7D356E000F0CF
:1003A00063F80746286F800705D500F05DF8C01B8D
:1003B0004845F7D34AE0B8F1000F03D0286C20F08D
:1003C00080502864A069002842D0A96801F00C017F
:1003D00008293FF405AF02282BD10020306600F039
:1003E00043F807462868800105D500F03DF8C01B9A
:1003F0000328F7D32AE0E069216A0843616A40EAEA
:100400008110A16A891EC903090C40EA0140E16A12
:1004100040EA016068600120306600F025F8074678
:100420002868800114D400F01FF8C01B0328F7D3FC
:100430000CE00020306600F017F8074628688001BD
:1004400006D500F011F8C01B0328F7D3032000E005
:100450000020BDE8F28300BF0038024000004742A0
:10046000800E47420070004001484068704700BF5E
:10047000000000202DE9F84F02460023DFF8B48188
:10048000DFF8B491DFF8B4A14FF00F0B01200C6836
:10049000984000EA040E864540F0C2804D689C00FA
:1004A000022D18BF122D0FD1DD0802EB850C04F0D0
:1004B0001C05DCF820600BFA05F7BE430F6907FA4C
:1004C00005F53543CCF820504FEA430C0325166858
:1004D0000F7905FA0CF5ED4307F003072E4007FAF4
:1004E0000CF73E4316604E68012E18BF022E03D053
:1004F000112E18BF122E0FD19668CF682E4007FA22
:100500000CF73E439660566826EA00004E68C6F334
:1005100000169E4030435060D06828408D6805FA30
:100520000CF52843D0604868C00079D500200090C1
:1005300004F00C06DAF8000040F48040CAF800002D
:100540000BFA06F4DAF8000000F4804000900098FE
:10055000980859F8205025EA0404394DAA4208BFEA
:1005600000252CD0374DAA4208BF012527D0364D93
:10057000AA4208BF022522D0344DAA4208BF032553
:100580001DD0334DAA4208BF042518D0314DAA42D0
:1005900008BF052513D0304DAA4208BF06250ED04E
:1005A0002E4DAA4208BF072509D02D4DAA4208BFEB
:1005B000082504D02B4DAA420CBF09250A25B540B9
:1005C0002C4349F820406FEA0E00D8F8004000EABA
:1005D000040C4C68E40348BF4EEA0C0CC8F800C099
:1005E000D8F8044000EA040C4C68A40348BF4EEA63
:1005F0000C0CC8F804C0D8F8084000EA040C4C6899
:10060000E40248BF4EEA0C0CC8F808C0D8F80C4009
:1006100020404C68A40248BF4EEA0000C8F80C0015
:100620005B1C102BFFF432AFBDE8F18F02B9090457
:1006300081617047003C0140083801404438024065
:10064000000002400004024000080240000C02408A
:10065000001002400014024000180240001C02403A
:10066000002002400024024030B597B000F0F2F8BC
:1006700000F086F801A8142100F006F9002000908F
:1006800000225F485F4C01685F4D41F0010101604D
:10069000016801F0010100F06DF841F00201016014
:1006A000016801F0020100F065F841F00401016009
:1006B000016801F0040100F05DF841F008010160FB
:1006C0004FF40071006800F0080000900098204688
:1006D000FFF7ACFF4FF40070019001A901200290D8
:1006E0000020039004902046FFF7C4FE00214748F5
:1006F000C5F880004FF4E13405F184004160816069
:10070000C16004600C21016100214161816105F13A
:10071000800000F0BDF83E4828606C600020A860B2
:10072000E86028610C2068610020A861E861284623
:1007300000F0AEF8374828646C640020A864E864D0
:1007400028650C2068650020A865E86505F1400073
:1007500000F09EF830480690079400200890099019
:100760000A900C200B9000200C900D9006A800F031
:100770008FF8FEE700910099002100910168704711
:1007800000B593B00FF29C0106A891EC0C0B80EC25
:100790000C0B01A8142100F077F8002000901F48EE
:1007A000016841F080510160006800F080500090C5
:1007B0000098002000901A48016821F4404141F45B
:1007C00080410160006800F44040009000980220E1
:1007D00006900120099010200A9000200C9006A895
:1007E000FFF7E4FC0F20019000210020029003900D
:1007F0000490059001A800F041F913B000BD00007D
:100800003038024000080240100400200048004038
:10081000004C00400050004000440040403802407E
:100820000070004000000000000000000000000018
:1008300000000000000000000000000000000000B8
:1008400000000000000000000000000000000000A8
:100850000000000080B50B48016841F400710160A0
:10086000016841F480610160016841F480710160B8
:10087000032000F0DEF9002000F024FA00F042FA34
:10088000002002BD003C0240002200F015BB000029
:1008900038B5050001D1012032BD05F1380460787A
:1008A00018B92070284600F047FA00F017F800F059
:1008B0000DF821F02A01FFE74161286800F019F8DE
:1008C000606020206070A070002032BD286801693F
:1008D00021F49041016128684169704724206070CB
:1008E0002868C16821F40051C160284600F007B8AB
:1008F0002068C16841F40051C160002070472DE9B3
:10090000F0470446642520680169E26821F44051FB
:10091000114301611926C168474A1140A268114379
:100920002269114362691143E2691143C16041695F
:10093000A26921F4407111434161E3693F49404A92
:10094000B3F5004F3AD1904218BF88420ED100F063
:1009500020F9074600F01DF9804600F01AF981469B
:1009600000F017F9824600F014F90DE000F009F9E3
:10097000074600F006F9804600F003F9814600F0D2
:1009800000F9824600F0FDF806FB08F361684900B3
:1009900000F066F8DB003233B3FBF5F3B2FBF1F2A3
:1009A0005B00B2FBF5F203F4F87300F04BF8C00003
:1009B0003230B0FBF5F000F0070038E0904218BF8D
:1009C00088420ED100F0E5F8074600F0E2F88046D4
:1009D00000F0DFF8814600F0DCF8824600F0D9F83C
:1009E0000DE000F0CEF8074600F0CBF8804600F0AE
:1009F000C8F8814600F0C5F8824600F0C2F806FB50
:100A000008F36168890000F02BF81B013233B2FB58
:100A1000F1F2B3FBF5F3B2FBF5F203F0F00300F0F3
:100A200011F800013230B0FBF5F000F00F00216842
:100A300080188860BDE8F087F369FFFF001401406B
:100A40000010014003EB0212704306FB0AF3B0FBF7
:100A5000F1F0B3FBF1F3B0FBF5F005FB103070479C
:100A6000B3FBF1F306FB07F206FB09F7B7FBF1F75F
:100A7000B7FBF5F705FB1733704700002DE9F04190
:100A800004000D4652D0484E00F076F802D200F035
:100A900072F84BD12068454F810712D5400703D526
:100AA000B86840F4E050B8602078000703D5B86813
:100AB00040F46040B860B868A16820F0F0000843D6
:100AC000B8602078C00729D56068012802D139684C
:100AD000890305E0022818BF032803D1396889017A
:100AE00003D423E03968890720D5B968890840EA2A
:100AF0008100B860FFF7B8FC8046B868616800F014
:100B00000C00B0EB810F09D0FFF7AEFCA0EB0800A2
:100B100041F289318842F0D303202AE0306800F0A6
:100B20000F00854204D200F026F801D0012020E019
:100B30002078400705D5B868E16820F4E050084304
:100B4000B8602078000706D5B868216920F46040B5
:100B500040EAC100B86000F033F8BA681449C2F343
:100B60000312895CC84013490860002000F0AAF80D
:100B70000020BDE8F0813570306800F00F00A84219
:100B800070470C480C4A006812680C49C2F3822274
:100B900006E00848084A006812680849C2F3423271
:100BA000895CC84070470000003C024000380240A9
:100BB000301000080C00002008380240B011000876
:100BC00010B5124C606800F00C00042802D0082810
:100BD00002D019E00E4810BD206800F03F022068E6
:100BE000002340022068C0F388104CBF084909491F
:100BF000A1FB000100F07AF92168C1F30141491C11
:100C00004900B0FBF1F010BD024810BD04380240AD
:100C100040787D010024F4000901002806D5244A0B
:100C200000F00F00104400F8041C7047214A1154D2
:100C3000704721490A684FF6FF0300021A4000F48A
:100C4000E06010431D4A10430860704738B51A4BE6
:100C50001B68C3F30223C3F10704052C28BF042437
:100C60001D1D072D34BF0023DB1E012505FA04F4EA
:100C7000641E2140994005FA03F35B1E1A4011439C
:100C8000BDE83440C8E710B5401EB0F1807F01D305
:100C9000012010BD0A4C60600F214FF0FF30FFF7BC
:100CA000BBFF0020A06007202060002010BD0000D6
:100CB00018ED00E000E400E00CED00E00000FA05B3
:100CC00010E000E038B50D4D297804464FF47A70F5
:100CD000B0FBF1F00A490968B1FBF0F0FFF7D3FF70
:100CE00050B9102C08D2002221464FF0FF30FFF7F8
:100CF000ADFFAC60002032BD012032BD00000020FD
:100D00000C00002081B0002000906148416841F44F
:100D100080414160416801F48041009100990021C7
:100D20000091016841F080510160006800F080503E
:100D30000090009801B0704710B586B0044601A835
:100D40001421FFF7A1FD2268524B534853499A42A0
:100D50000FD1002200920A6942F400220A610A6956
:100D600002F4002200F086F8032100F075F8082153
:100D70003FE04B4B9A422AD100200090086940F492
:100D800080100861086900F4801000F06DF840F0F0
:100D900004000860086800F0040000F065F840F006
:100DA00008000860086800F00800009001A9009899
:100DB0004FF48050019000F046F83A48FFF75AFB94
:100DC0000420019001A900F03EF8374837E0374B86
:100DD0009A4211D1002200920A6942F400320A615B
:100DE0000A6902F4003200F045F80C2100F034F8F2
:100DF0000721059101A922E02D48824221D100203E
:100E00000090086940F480200861086900F480209F
:100E100000F02AF840F002000860086800F00200C4
:100E2000009001A900984FF44060019002200290C8
:100E30000120039003200490072005901D48FFF730
:100E400019FB06B010BD0220029001200390032080
:100E50000490082005907047019102210291012120
:100E600003910321049170470090009800200090A6
:100E7000086870470092009A002200920A6842F0C7
:100E800001020A60096801F00101009100997047B0
:100E900040380240004C0040000002403038024020
:100EA0000050004000080240000C02400044004096
:100EB000004800400004024000B500BF1300964601
:100EC0009446103928BFA0E80C50FAD85FEA417C5C
:100ED00028BF0CC048BF40F8042BC90728BF20F822
:100EE000022B48BF00F8012B00BD00001B4213D1AC
:100EF000094236D12AB18446B0FBF2F002FB10C29F
:100F0000704700F06BB8FCD30022002370470B0041
:100F10000200002100207047904271EB030CF6D3D1
:100F200070B5B1FA81F4B3FA83F52C1BA340C4F178
:100F3000200532FA05F63343A2405FF00046E64052
:100F400002E05B085FEA3202841A71EB030524BFFA
:100F5000204629467641F4D302000B0030000021E0
:100F600070BD012ACFD970B5140C20D0B1FA81F42C
:100F7000B2FA82F5C4F120046419B4F12006D6D384
:100F8000B2405FF00044F440002502E052085FEAFE
:100F90003303C61A71EB020E24BF3046714664411A
:100FA0006D41F3D302000B002000290070BD0C46F8
:100FB000B1FBF2F102FB11452D0445EA1045B5FBEA
:100FC000F2F402FB145580B240EA0545B5FBF2F09D
:100FD00002FB105240EA044070BD00007047000060
:100FE0000E480F4A016841F4700101600D48016824
:100FF00041F0010101600021816001681140016040
:1010000009494160016821F4802101600021C1602B
:101010004FF00060054908607047000088ED00E06F
:10102000FFFFF6FE003802401030002408ED00E01B
:101030000000000000000000010203040607080988
:1010400019E050F8041BCB0744BFA9F1010359185C
:10105000121F0023042A41F8043BF9D25FEA827C84
:101060000B4604D54FF0000CA1F800C09B1CD10723
:1010700044BF0021197050F8042B002AE1D17047B9
:1010800010B450F8041B79B1026843680244083078
:10109000DC0744BFA9F10104E31852F8044B43F8FC
:1010A000044B091FF9D1ECE710BC704710B5074994
:1010B00079441831064C7C44163404E00A68081D53
:1010C000114488470146A142F8D110BD2C00000010
:1010D0004C0000004EF68851CEF20001086840F442
:1010E00070000860BFF34F8FBFF36F8F4FF0007039
:1010F000E1EE100A7047000049FFFFFFC00000004A
:10110000100400200000000079FFFFFF1000000025
:1011100084000000000000200000000000F00BF838
:10112000002801D0FFF7C2FF0020AFF30080FFF7D7
:101130009BFA00F002F80120704700F001B80000AF
:101140000746384600F002F8FBE7000080B5AFF331
:101150000080024A11001820ABBEFBE72600020007
:101160007047FEE7FEE7FEE7FEE77047704770470F
:1011700000F000B802484168027889184160704761
:10118000000000200148804701480047E10F0008A7
:10119000A511000801000000000000001000000080
:1011A0000024F400AFF30080FFF794FFFFF7B6FFD1
:1011B0000000000001020304FFF7FEBFFFF7FEBFBF
:1011C000FFF7FEBFFFF7FEBFFFF7FEBFFFF7FEBF53
:1011D000FFF7FEBFFFF7FEBFFFF7FEBFFFF7FEBF43
:1011E000FFF7FEBFFFF7FEBFFFF7FEBFFFF7FEBF33
:1011F000FFF7FEBFFFF7FEBFFFF7FEBFFFF7FEBF23
:10120000FFF7FEBFFFF7FEBFFFF7FEBFFFF7FEBF12
:10121000FFF7FEBFFFF7FEBFFFF7FEBFFFF7FEBF02
:10122000FFF7FEBFFFF7FEBFFFF7FEBFFFF7FEBFF2
:10123000FFF7FEBFFFF7FEBFFFF7FEBFFFF7FEBFE2
:10124000FFF7FEBFFFF7FEBFFFF7FEBFFFF7FEBFD2
:10125000FFF7FEBFFFF7FEBFFFF7FEBFFFF7FEBFC2
:10126000FFF7FEBFFFF7FEBFFFF7FEBFFFF7FEBFB2
:10127000FFF7FEBFFFF7FEBFFFF7FEBFFFF7FEBFA2
:10128000FFF7FEBFFFF7FEBFFFF7FEBFFFF7FEBF92
:10129000FFF7FEBFFFF7FEBFFFF7FEBFFFF7FEBF82
:1012A000FFF7FEBFFFF7FEBFFFF7FEBFFFF7FEBF72
:1012B000FFF7FEBFFFF7FEBFFFF7FEBFFFF7FEBF62
:1012C000FFF7FEBFFFF7FEBFFFF7FEBFFFF7FEBF52
:1012D000FFF7FEBFFFF7FEBFFFF7FEBFFFF7FEBF42
:1012E000FFF7FEBFFFF7FEBFFFF7FEBFFFF7FEBF32
:1012F000FFF7FEBFFFF7FEBFFFF7FEBFFFF7FEBF22
:10130000FFF7FEBFFFF7FEBFFFF7FEBFFFF7FEBF11
:10131000FFF7FEBFFFF7FEBFFFF7FEBFFFF7FEBF01
:04000005080011A539
:00000001FF
